:030000000201CC2E
:0C01CC00787FE4F6D8FD75811D02018AE1
:1001BA0000000006005B004F0066006D007D00072E
:0201CA00007FB4
:1001A500EF1FAC0670011E4C600A7D027CEFDCFE81
:0401B500DDFC80EC01
:0101B9002223
:0400F9007C007E0009
:0800FD008E088F098C0A8D0B9F
:10010500780C7C007D007BFF7A0179BA7E007F1236
:100115001200D3E508705CE50914B408005054904A
:10012500013275F003A4C58325F0C58373020172FE
:1001350002016A02016202015A02015602015202DB
:10014500014E02014AC2A4800EC2A48012C2A4803C
:1001550016C2A4801AD2A4C2A3C2A28016D2A4C277
:10016500A3D2A2800ED2A4D2A3C2A28006D2A4D2C8
:10017500A3D2A2E50B25E0240CF808E6F5807F0163
:050185007E000201A54F
:10018A007D017F011200F97D027F021200F97D03D1
:0B019A007C007F037E001200FD80E56A
:10000300E709F608DFFA8046E709F208DFFA803EDF
:1000130088828C83E709F0A3DFFA8032E309F608CC
:10002300DFFA8078E309F208DFFA807088828C8334
:10003300E309F0A3DFFA806489828A83E0A3F608E8
:10004300DFFA805889828A83E0A3F208DFFA804CC2
:1000530080D280FA80C680D4806980F28033801099
:1000630080A680EA809A80A880DA80E280CA803302
:1000730089828A83ECFAE493A3C8C582C8CCC5837A
:10008300CCF0A3C8C582C8CCC583CCDFE9DEE7804A
:100093000D89828A83E493A3F608DFF9ECFAA9F0C9
:1000A300EDFB2289828A83ECFAE0A3C8C582C8CC1F
:1000B300C583CCF0A3C8C582C8CCC583CCDFEADE38
:1000C300E880DB89828A83E493A3F208DFF980CC9A
:1000D30088F0EF60010E4E60C388F0ED2402B40493
:1000E3000050B9F582EB2402B4040050AF2323453A
:0600F3008223900053730C
:00000001FF
