:030000000203D820
:0C03D800787FE4F6D8FD7581230202FE58
:0B03E4005520617265206C69666500A1
:1002FE001203B57BFF7A0379E47D017F0112032C93
:10030E001200037522008F23E523452260F2750C3F
:0E031E0002AB23AA227D017F0212036D80E252
:1003A000EF1FAC0670011E4C600A7D027CEFDCFE84
:0403B000DDFC80EC04
:0103B4002226
:0603C900C2A58F80D2A73F
:0803CF007F027EEFDEFEDFFC81
:0103D7002203
:0A03EF00C2A61203C9C2A70203CF81
:10034F00CFCDCFCECCCE1201CB7C007D0A1201CB0C
:04035F00ED2430FF5A
:0A036300D2A61203C9C2A70203CFFD
:10038A00AE07BE0104ED148006BE0209ED243F4407
:06039A0080FF1203EF22B8
:1003B5007F381203EF7F0C1203EF7F061203EF7FE6
:0403C500010203EF3F
:0A03F900AC0312038AAF0402036391
:06032C008B088A09890A12
:1003320012038AE4FDAB08AA09A90A8D827583001B
:0C03420012018CFF60061203630D80E9BD
:01034E00228C
:0C02CB007F0AEA24FFFDE434FFFC7E0003
:0802D7008E0D8F0E8C0F8D10AF
:1002DF007F017E00E4FBEBC39510E50F6480F8749B
:0E02EF008098500AAC0DAD0E1201B90B80E8DC
:0102FD0022DE
:04036D008A0A8B0B62
:1003710012038AAA0CEAD39400400D1202CBAC0AF4
:08038100AD0B12034F1A80EDD1
:010389002251
:1002200012038AC3EA64809480400B7F2B1203631D
:100230008A168B17800E7F2D120363C3E49BF5177C
:10024000E49AF516AA15EAD39400400D1202CBAC3D
:0902500016AD1712034F1A80EDE0
:010259002282
:04025A008A1A8B1B56
:10025E0012038AAA1CEAD3940040297F101202CD01
:10026E00AC1AAD1BCFCDCFCECCCE1201CBEF540FEF
:10027E00FEC3940AEE5004243080022437FF12038A
:04028E00631A80D19E
:010292002249
:040293008A1F8B2013
:1002970012038AAA21EAD394004028EA24FFFDE446
:1002A70034FFFC7F027E001202D7AC1FAD20CFCDFA
:1002B700CFCECCCE1201CBEF54012430FF12036313
:0302C7001A80D2C8
:0102CA002211
:10000300E4F5087590FFC2902094137F14FE120349
:10001300A03094FD7F147E001203A0750810209574
:10002300147F147E001203A03095FD7F147E00120E
:1000330003A075080C2096147F147E001203A030D1
:1000430096FD7F147E001203A07508082097147F85
:10005300147E001203A03097FD7F147E001203A0CC
:100063007508047590FFC2912094147F147E0012CA
:1000730003A03094FD7F147E001203A075080F20A7
:1000830095147F147E001203A03095FD7F147E002B
:100093001203A075080B2096147F147E001203A090
:1000A3003096FD7F147E001203A075080720971475
:1000B3007F147E001203A03097FD7F147E0012038D
:1000C300A07508037590FFC2922094147F147E00DC
:1000D3001203A03094FD7F147E001203A075080E56
:1000E3002095147F147E001203A03095FD7F147EAB
:1000F300001203A075080A2096147F147E001203D1
:10010300A03096FD7F147E001203A0750806209789
:10011300147F147E001203A03097FD7F147E00121B
:1001230003A07508027590FFC2932094147F147E78
:10013300001203A03094FD7F147E001203A0750803
:100143000D2095147F147E001203A03095FD7F14BB
:100153007E001203A07508092096147F147E0012F6
:1001630003A03096FD7F147E001203A075080520BE
:1001730097147F147E001203A03097FD7F147E0036
:080183001203A0750801AF088A
:01018B002251
:10018C00BB010CE58229F582E5833AF583E0225028
:10019C0006E92582F8E622BBFE06E92582F8E22272
:0D01AC00E58229F582E5833AF583E493228C
:1001B900EF8DF0A4A8F0CF8CF0A428CE8DF0A42E5A
:0201C900FE2214
:1001CB00BC000BBE0029EF8DF084FFADF022E4CC18
:1001DB00F875F008EF2FFFEE33FEEC33FCEE9DECE1
:1001EB00984005FCEE9DFE0FD5F0E9E4CEFD22ED27
:1001FB00F8F5F0EE8420D21CFEADF075F008EF2F71
:10020B00FFED33FD4007985006D5F0F222C398FD61
:05021B000FD5F0EA22FE
:00000001FF
