:03000000020003F8
:0C000300787FE4F6D8FD75811902004AF0
:100102007D017C007F017E0012008F7D027C007FDA
:10011200027E0012008F7D037C007F037E001200AE
:030122008F80DDEE
:10012500EF1FAC0670011E4C600A7D027CEFDCFE01
:04013500DDFC80EC81
:0101390022A3
:10013A00120800000006005B004F0066006D007D9B
:04014A000007007F2B
:10008F00EE705BEF14B4080050549000A775F003A6
:10009F00A4C58325F0C583730200E70200DF0200C9
:1000AF00D70200CF0200CB0200C70200C30200BF7D
:1000BF00C2A4800EC2A48012C2A48016C2A4801A49
:1000CF00D2A4C2A3C2A28016D2A4C2A3D2A2800E6F
:1000DF00D2A4D2A3C2A28006D2A4D2A3D2A2ED25CB
:1000EF00E02408F808E6F5807F017E00120125E480
:0300FF00F5802267
:10000F00020102E493A3F8E493A34003F68001F204
:10001F0008DFF48029E493A3F85407240CC8C333F2
:10002F00C4540F4420C8834004F456800146F6DFC1
:10003F00E4800B010204081020408090013AE47E16
:10004F00019360BCA3FF543F30E509541FFEE493B6
:10005F00A360010ECF54C025E060A840B8E493A37D
:10006F00FAE493A3F8E493A3C8C582C8CAC583CAA8
:10007F00F0A3C8C582C8CAC583CADFE9DEE780BE60
:01014E0000B0
:00000001FF
