:0300000002009269
:0C009200787FE4F6D8FD75810702009E1F
:10000300EE6003020091EF14B40800400302009174
:1000130090002175F003A4C58325F0C58373020006
:100023003902004402004F02005A020065020070C8
:1000330002007B020086C2A4C2A3C2A2758006800E
:10004300FBC2A4C2A3D2A275805B80FBC2A4D2A3CD
:10005300C2A275804F80FBC2A4D2A3D2A2758066D0
:1000630080FBD2A4C2A3C2A275806D80FBD2A4C2BE
:10007300A3D2A275807D80FBD2A4D2A3C2A2758035
:0F0083000780FBD2A4D2A3D2A275807F80FB227C
:07009E007F087E0002000351
:00000001FF
